{
  "contractName": "EquinoxIco",
  "abi": [
    {
      "inputs": [
        {
          "internalType": "contract IERC20",
          "name": "token_",
          "type": "address"
        },
        {
          "internalType": "address",
          "name": "multisig_",
          "type": "address"
        },
        {
          "internalType": "uint256",
          "name": "startTime_",
          "type": "uint256"
        },
        {
          "internalType": "uint256",
          "name": "endTime_",
          "type": "uint256"
        },
        {
          "internalType": "uint256",
          "name": "rate_",
          "type": "uint256"
        },
        {
          "internalType": "uint256",
          "name": "softCap_",
          "type": "uint256"
        },
        {
          "internalType": "uint256",
          "name": "hardCap_",
          "type": "uint256"
        },
        {
          "internalType": "address",
          "name": "router_",
          "type": "address"
        }
      ],
      "stateMutability": "nonpayable",
      "type": "constructor"
    },
    {
      "anonymous": false,
      "inputs": [
        {
          "indexed": true,
          "internalType": "address",
          "name": "wallet",
          "type": "address"
        },
        {
          "indexed": false,
          "internalType": "uint256",
          "name": "amount",
          "type": "uint256"
        }
      ],
      "name": "Claimed",
      "type": "event"
    },
    {
      "anonymous": false,
      "inputs": [
        {
          "indexed": true,
          "internalType": "address",
          "name": "wallet",
          "type": "address"
        },
        {
          "indexed": false,
          "internalType": "uint256",
          "name": "amount",
          "type": "uint256"
        }
      ],
      "name": "Deposited",
      "type": "event"
    },
    {
      "anonymous": false,
      "inputs": [
        {
          "indexed": false,
          "internalType": "address",
          "name": "owner",
          "type": "address"
        },
        {
          "indexed": false,
          "internalType": "uint256",
          "name": "amountToken",
          "type": "uint256"
        },
        {
          "indexed": false,
          "internalType": "uint256",
          "name": "bnbAmount",
          "type": "uint256"
        }
      ],
      "name": "LiquidityAdded",
      "type": "event"
    },
    {
      "anonymous": false,
      "inputs": [
        {
          "indexed": false,
          "internalType": "address",
          "name": "owner",
          "type": "address"
        }
      ],
      "name": "LiquidityRemoved",
      "type": "event"
    },
    {
      "anonymous": false,
      "inputs": [
        {
          "indexed": true,
          "internalType": "address",
          "name": "wallet",
          "type": "address"
        },
        {
          "indexed": true,
          "internalType": "address",
          "name": "account",
          "type": "address"
        },
        {
          "indexed": false,
          "internalType": "uint256",
          "name": "amount",
          "type": "uint256"
        },
        {
          "indexed": false,
          "internalType": "uint256",
          "name": "tokenAmount",
          "type": "uint256"
        }
      ],
      "name": "TokensPurchased",
      "type": "event"
    },
    {
      "inputs": [
        {
          "internalType": "address",
          "name": "",
          "type": "address"
        }
      ],
      "name": "_contributions",
      "outputs": [
        {
          "internalType": "uint256",
          "name": "",
          "type": "uint256"
        }
      ],
      "stateMutability": "view",
      "type": "function"
    },
    {
      "inputs": [],
      "name": "bnbLockTime",
      "outputs": [
        {
          "internalType": "uint256",
          "name": "",
          "type": "uint256"
        }
      ],
      "stateMutability": "view",
      "type": "function"
    },
    {
      "inputs": [],
      "name": "liquidityLockTime",
      "outputs": [
        {
          "internalType": "uint256",
          "name": "",
          "type": "uint256"
        }
      ],
      "stateMutability": "view",
      "type": "function"
    },
    {
      "inputs": [],
      "name": "pair",
      "outputs": [
        {
          "internalType": "address",
          "name": "",
          "type": "address"
        }
      ],
      "stateMutability": "view",
      "type": "function"
    },
    {
      "inputs": [],
      "name": "router",
      "outputs": [
        {
          "internalType": "contract IUniswapV2Router02",
          "name": "",
          "type": "address"
        }
      ],
      "stateMutability": "view",
      "type": "function"
    },
    {
      "stateMutability": "payable",
      "type": "receive"
    },
    {
      "inputs": [],
      "name": "token",
      "outputs": [
        {
          "internalType": "contract IERC20",
          "name": "",
          "type": "address"
        }
      ],
      "stateMutability": "view",
      "type": "function"
    },
    {
      "inputs": [],
      "name": "wallet",
      "outputs": [
        {
          "internalType": "address",
          "name": "",
          "type": "address"
        }
      ],
      "stateMutability": "view",
      "type": "function"
    },
    {
      "inputs": [],
      "name": "rate",
      "outputs": [
        {
          "internalType": "uint256",
          "name": "",
          "type": "uint256"
        }
      ],
      "stateMutability": "view",
      "type": "function"
    },
    {
      "inputs": [],
      "name": "multisigAddress",
      "outputs": [
        {
          "internalType": "address",
          "name": "",
          "type": "address"
        }
      ],
      "stateMutability": "view",
      "type": "function"
    },
    {
      "inputs": [
        {
          "internalType": "uint256",
          "name": "rate_",
          "type": "uint256"
        }
      ],
      "name": "changeRate",
      "outputs": [],
      "stateMutability": "nonpayable",
      "type": "function"
    },
    {
      "inputs": [],
      "name": "weiRaised",
      "outputs": [
        {
          "internalType": "uint256",
          "name": "",
          "type": "uint256"
        }
      ],
      "stateMutability": "view",
      "type": "function"
    },
    {
      "inputs": [
        {
          "internalType": "address",
          "name": "beneficiary",
          "type": "address"
        }
      ],
      "name": "buyTokens",
      "outputs": [],
      "stateMutability": "payable",
      "type": "function"
    },
    {
      "inputs": [
        {
          "internalType": "contract IERC20",
          "name": "token_",
          "type": "address"
        }
      ],
      "name": "changeToken",
      "outputs": [],
      "stateMutability": "nonpayable",
      "type": "function"
    },
    {
      "inputs": [
        {
          "internalType": "uint256",
          "name": "tokenAmount",
          "type": "uint256"
        },
        {
          "internalType": "uint256",
          "name": "bnbAmount",
          "type": "uint256"
        }
      ],
      "name": "provideLiquidity",
      "outputs": [],
      "stateMutability": "nonpayable",
      "type": "function"
    },
    {
      "inputs": [],
      "name": "removeLiquidity",
      "outputs": [],
      "stateMutability": "nonpayable",
      "type": "function"
    },
    {
      "inputs": [
        {
          "internalType": "uint256",
          "name": "amount",
          "type": "uint256"
        }
      ],
      "name": "sendTokenToMultisig",
      "outputs": [],
      "stateMutability": "nonpayable",
      "type": "function"
    },
    {
      "inputs": [
        {
          "internalType": "address",
          "name": "wallet_",
          "type": "address"
        },
        {
          "internalType": "uint256",
          "name": "amount",
          "type": "uint256"
        }
      ],
      "name": "drainBnb",
      "outputs": [],
      "stateMutability": "nonpayable",
      "type": "function"
    },
    {
      "inputs": [],
      "name": "withdrawETH",
      "outputs": [],
      "stateMutability": "nonpayable",
      "type": "function"
    },
    {
      "inputs": [],
      "name": "claim",
      "outputs": [],
      "stateMutability": "nonpayable",
      "type": "function"
    },
    {
      "inputs": [
        {
          "internalType": "uint256",
          "name": "startTime_",
          "type": "uint256"
        }
      ],
      "name": "changeStartTime",
      "outputs": [],
      "stateMutability": "nonpayable",
      "type": "function"
    },
    {
      "inputs": [
        {
          "internalType": "uint256",
          "name": "endTime_",
          "type": "uint256"
        }
      ],
      "name": "chageEndtime",
      "outputs": [],
      "stateMutability": "nonpayable",
      "type": "function"
    },
    {
      "inputs": [
        {
          "internalType": "address",
          "name": "wallet_",
          "type": "address"
        }
      ],
      "name": "changeOwnership",
      "outputs": [],
      "stateMutability": "nonpayable",
      "type": "function"
    },
    {
      "inputs": [
        {
          "internalType": "uint256",
          "name": "minBuy_",
          "type": "uint256"
        }
      ],
      "name": "setMinBuy",
      "outputs": [],
      "stateMutability": "nonpayable",
      "type": "function"
    },
    {
      "inputs": [
        {
          "internalType": "uint256",
          "name": "maxBuy_",
          "type": "uint256"
        }
      ],
      "name": "setMaxBuy",
      "outputs": [],
      "stateMutability": "nonpayable",
      "type": "function"
    }
  ],
  "bytecode": "0x60806040523480156200001157600080fd5b5060405162001e3838038062001e38833981016040819052620000349162000300565b60016000556001600160a01b038816620000a05760405162461bcd60e51b8152602060048201526024808201527f43726f776473616c653a20746f6b656e20697320746865207a65726f206164646044820152637265737360e01b606482015260840160405180910390fd5b600180546001600160a01b0319166001600160a01b038a1617905560068690556007859055620000cd3390565b600380546001600160a01b03199081166001600160a01b039384161790915560028054909116898316179055600a849055600b83905560058590556040805163c45a015560e01b81529051839283169163c45a0155916004808301926020929190829003018186803b1580156200014357600080fd5b505afa15801562000158573d6000803e3d6000fd5b505050506040513d601f19601f820116820180604052508101906200017e9190620002d9565b6001600160a01b031663c9c65396600160009054906101000a90046001600160a01b0316836001600160a01b031663ad5c46486040518163ffffffff1660e01b815260040160206040518083038186803b158015620001dc57600080fd5b505afa158015620001f1573d6000803e3d6000fd5b505050506040513d601f19601f82011682018060405250810190620002179190620002d9565b6040516001600160e01b031960e085901b1681526001600160a01b03928316600482015291166024820152604401602060405180830381600087803b1580156200026057600080fd5b505af115801562000275573d6000803e3d6000fd5b505050506040513d601f19601f820116820180604052508101906200029b9190620002d9565b600d80546001600160a01b039283166001600160a01b031991821617909155600c8054939092169216919091179055506200039f9650505050505050565b600060208284031215620002ec57600080fd5b8151620002f98162000386565b9392505050565b600080600080600080600080610100898b0312156200031e57600080fd5b88516200032b8162000386565b60208a01519098506200033e8162000386565b8097505060408901519550606089015194506080890151935060a0890151925060c0890151915060e0890151620003758162000386565b809150509295985092959890939650565b6001600160a01b03811681146200039c57600080fd5b50565b611a8980620003af6000396000f3fe60806040526004361061014f5760003560e01c806367b9a286116100b6578063e086e5ec1161006f578063e086e5ec14610399578063ec8ac4d8146103ae578063f53bc835146103bc578063f887ea40146103dc578063fc0c546a146103fc578063ffb77d5b1461041a57600080fd5b806367b9a286146102e457806374e7493b146102f95780637a16af7f14610319578063860779e7146103395780638aa5b2c314610359578063a8aa1b311461037957600080fd5b80634d30f180116101085780634d30f180146102295780634e71d92d1461023f578063521eb273146102545780635462870d146102865780635d1361bd146102a457806366829b16146102c457600080fd5b80631e6a610d146101695780632af4c31e146101a95780632c4e722e146101c957806335b4eda7146101de5780634042b66f146101fe57806348de0f401461021357600080fd5b36610164576101623361043a565b61043a565b005b600080fd5b34801561017557600080fd5b506101966101843660046116b1565b60106020526000908152604090205481565b6040519081526020015b60405180910390f35b3480156101b557600080fd5b506101626101c43660046116b1565b610680565b3480156101d557600080fd5b50600554610196565b3480156101ea57600080fd5b506101626101f9366004611739565b6106cc565b34801561020a57600080fd5b50600454610196565b34801561021f57600080fd5b50610196600f5481565b34801561023557600080fd5b50610196600e5481565b34801561024b57600080fd5b506101626106fb565b34801561026057600080fd5b506003546001600160a01b03165b6040516001600160a01b0390911681526020016101a0565b34801561029257600080fd5b506002546001600160a01b031661026e565b3480156102b057600080fd5b506101626102bf3660046116eb565b6107fe565b3480156102d057600080fd5b506101626102df3660046116b1565b6108a1565b3480156102f057600080fd5b506101626108ed565b34801561030557600080fd5b50610162610314366004611739565b610bc1565b34801561032557600080fd5b5061016261033436600461176b565b610bf0565b34801561034557600080fd5b50610162610354366004611739565b610d2c565b34801561036557600080fd5b50610162610374366004611739565b610df7565b34801561038557600080fd5b50600d5461026e906001600160a01b031681565b3480156103a557600080fd5b50610162610e26565b61016261015d3660046116b1565b3480156103c857600080fd5b506101626103d7366004611739565b610edd565b3480156103e857600080fd5b50600c5461026e906001600160a01b031681565b34801561040857600080fd5b506001546001600160a01b031661026e565b34801561042657600080fd5b50610162610435366004611739565b610fa8565b600260005414156104925760405162461bcd60e51b815260206004820152601f60248201527f5265656e7472616e637947756172643a207265656e7472616e742063616c6c0060448201526064015b60405180910390fd5b60026000556006544210156104c35760405162461bcd60e51b81526020600482015260006024820152604401610489565b6007544211156104ef5760405162461bcd60e51b81526020600482015260006024820152604401610489565b6006544210156105415760405162461bcd60e51b815260206004820152601c60248201527f50726573616c6520686173206e6f742073746172746564207965742e000000006044820152606401610489565b6007544211156105935760405162461bcd60e51b815260206004820152601a60248201527f50726573616c652068617320616c726561647920656e6465642e0000000000006044820152606401610489565b34806105e15760405162461bcd60e51b815260206004820181905260248201527f416d6f756e742073686f756c642062652067726561746572207468656e20302e6044820152606401610489565b6105eb828261105a565b6105f58282611110565b6001600160a01b0382166000908152601060205260408120805483929061061d908490611897565b90915550506040518181526001600160a01b038316907f2da466a7b24304f47e87fa2e1e5a81b9831ce54fec19055ce277ca2f39ba42c49060200160405180910390a280600460008282546106729190611897565b909155505060016000555050565b6003546001600160a01b031633146106aa5760405162461bcd60e51b815260040161048990611851565b600380546001600160a01b0319166001600160a01b0392909216919091179055565b6003546001600160a01b031633146106f65760405162461bcd60e51b815260040161048990611851565b600755565b33600081815260106020526040902054806107585760405162461bcd60e51b815260206004820152601b60248201527f57616c6c657420686173206e6f20636f6e747269627574696f6e2e00000000006044820152606401610489565b600061076382611227565b60408051848152602081018390529192506001600160a01b0385169133917f6faf93231a456e552dbc9961f58d9713ee4f2e69d15f1975b050ef0911053a7b910160405180910390a36107b68382611244565b826001600160a01b03167fd8138f8a3f377c5259ca548e70e4c2de94f129f5a11036a15b69513cba2b426a826040516107f191815260200190565b60405180910390a2505050565b6003546001600160a01b031633146108285760405162461bcd60e51b815260040161048990611851565b42600e54106108665760405162461bcd60e51b815260206004820152600a602482015269109390881b1bd8dad95960b21b6044820152606401610489565b6040516001600160a01b0383169082156108fc029083906000818181858888f1935050505015801561089c573d6000803e3d6000fd5b505050565b6003546001600160a01b031633146108cb5760405162461bcd60e51b815260040161048990611851565b600180546001600160a01b0319166001600160a01b0392909216919091179055565b6003546001600160a01b031633146109175760405162461bcd60e51b815260040161048990611851565b42600f54106109585760405162461bcd60e51b815260206004820152600d60248201526c29ba34b636103637b1b5b2b21760991b6044820152606401610489565b600d546040516370a0823160e01b81523060048201526000916001600160a01b0316906370a082319060240160206040518083038186803b15801561099c57600080fd5b505afa1580156109b0573d6000803e3d6000fd5b505050506040513d601f19601f820116820180604052508101906109d49190611752565b600d54600c5460405163095ea7b360e01b81526001600160a01b03918216600482015260248101849052929350169063095ea7b390604401602060405180830381600087803b158015610a2657600080fd5b505af1158015610a3a573d6000803e3d6000fd5b505050506040513d601f19601f82011682018060405250810190610a5e9190611717565b50600c54600154604080516315ab88c960e31b815290516001600160a01b039384169363baa2abde931691849163ad5c464891600480820192602092909190829003018186803b158015610ab157600080fd5b505afa158015610ac5573d6000803e3d6000fd5b505050506040513d601f19601f82011682018060405250810190610ae991906116ce565b6040516001600160e01b031960e085901b1681526001600160a01b039283166004820152911660248201526044810184905260006064820181905260848201523060a48201524260c482015260e4016040805180830381600087803b158015610b5157600080fd5b505af1158015610b65573d6000803e3d6000fd5b505050506040513d601f19601f82011682018060405250810190610b89919061178d565b50506040513081527f5dab48db0770e220c3226a459b19d38e7438c27b1b8dac1fab1434686d2319cd9060200160405180910390a150565b6003546001600160a01b03163314610beb5760405162461bcd60e51b815260040161048990611851565b600555565b6003546001600160a01b03163314610c1a5760405162461bcd60e51b815260040161048990611851565b600754421015610c645760405162461bcd60e51b8152602060048201526015602482015274283932b9b0b6329034b99039ba34b6361037b832b760591b6044820152606401610489565b6000610c71600454611227565b9050600a54811015610cbc5760405162461bcd60e51b815260206004820152601460248201527314dbd99d0818d85c081b9bdd081c995858da195960621b6044820152606401610489565b610cc94262278d00611897565b600e55610cd9426276a700611897565b600f55610ce68383611267565b60408051308152602081018590529081018390527fac1d76749e5447b7b16f5ab61447e1bd502f3bb4807af3b28e620d1700a6ee459060600160405180910390a1505050565b6003546001600160a01b03163314610d565760405162461bcd60e51b815260040161048990611851565b600160009054906101000a90046001600160a01b03166001600160a01b031663313ce5676040518163ffffffff1660e01b815260040160206040518083038186803b158015610da457600080fd5b505afa158015610db8573d6000803e3d6000fd5b505050506040513d601f19601f82011682018060405250810190610ddc91906117df565b610de790600a611914565b610df190826119bf565b60085550565b6003546001600160a01b03163314610e215760405162461bcd60e51b815260040161048990611851565b600655565b3360009081526010602052604090205480610e835760405162461bcd60e51b815260206004820152601c60248201527f57616c6c61742068617665206e6f20636f6e747269627574696f6e2e000000006044820152606401610489565b33600090815260106020526040812081905560048054839290610ea79084906119de565b9091555050604051339082156108fc029083906000818181858888f19350505050158015610ed9573d6000803e3d6000fd5b5050565b6003546001600160a01b03163314610f075760405162461bcd60e51b815260040161048990611851565b600160009054906101000a90046001600160a01b03166001600160a01b031663313ce5676040518163ffffffff1660e01b815260040160206040518083038186803b158015610f5557600080fd5b505afa158015610f69573d6000803e3d6000fd5b505050506040513d601f19601f82011682018060405250810190610f8d91906117df565b610f9890600a611914565b610fa290826119bf565b60095550565b6003546001600160a01b03163314610fd25760405162461bcd60e51b815260040161048990611851565b60015460025460405163a9059cbb60e01b81526001600160a01b0391821660048201526024810184905291169063a9059cbb90604401602060405180830381600087803b15801561102257600080fd5b505af1158015611036573d6000803e3d6000fd5b505050506040513d601f19601f82011682018060405250810190610ed99190611717565b6001600160a01b0382166110c35760405162461bcd60e51b815260206004820152602a60248201527f43726f776473616c653a2062656e656669636961727920697320746865207a65604482015269726f206164647265737360b01b6064820152608401610489565b80610ed95760405162461bcd60e51b815260206004820152601960248201527f43726f776473616c653a20776569416d6f756e742069732030000000000000006044820152606401610489565b6001600160a01b0382166000908152601060205260409020546111339082611897565b9050600061114082611227565b6001546040516370a0823160e01b81526001600160a01b0386811660048301529293509116906370a082319060240160206040518083038186803b15801561118757600080fd5b505afa15801561119b573d6000803e3d6000fd5b505050506040513d601f19601f820116820180604052508101906111bf9190611752565b6111c99082611897565b905060085481101561089c5760405162461bcd60e51b815260206004820152602160248201527f43616e206e6f74206265206c657373207468616e206d696e696d756d206275796044820152601760f91b6064820152608401610489565b600061123e6005548361139b90919063ffffffff16565b92915050565b6001600160a01b038216600090815260106020526040812055610ed98282611421565b600154600c5460405163095ea7b360e01b81526001600160a01b0391821660048201526024810185905291169063095ea7b390604401602060405180830381600087803b1580156112b757600080fd5b505af11580156112cb573d6000803e3d6000fd5b505050506040513d601f19601f820116820180604052508101906112ef9190611717565b50600c5460015460405163f305d71960e01b81526001600160a01b0391821660048201526024810185905260006044820181905260648201523060848201524260a482015291169063f305d71990839060c4016060604051808303818588803b15801561135b57600080fd5b505af115801561136f573d6000803e3d6000fd5b50505050506040513d601f19601f8201168201806040525081019061139491906117b1565b5050505050565b6000826113aa5750600061123e565b60006113b683856119bf565b9050826113c385836118af565b1461141a5760405162461bcd60e51b815260206004820152602160248201527f536166654d6174683a206d756c7469706c69636174696f6e206f766572666c6f6044820152607760f81b6064820152608401610489565b9392505050565b600154604080516001600160a01b03858116602483015260448083018690528351808403909101815260649092018352602080830180516001600160e01b031663a9059cbb60e01b17905283518085019094528084527f5361666545524332303a206c6f772d6c6576656c2063616c6c206661696c656490840152610ed99316918591859161089c9185916000906114bc9084908490611539565b80519091501561089c57808060200190518101906114da9190611717565b61089c5760405162461bcd60e51b815260206004820152602a60248201527f5361666545524332303a204552433230206f7065726174696f6e20646964206e6044820152691bdd081cdd58d8d9595960b21b6064820152608401610489565b60606115488484600085611550565b949350505050565b6060824710156115b15760405162461bcd60e51b815260206004820152602660248201527f416464726573733a20696e73756666696369656e742062616c616e636520666f6044820152651c8818d85b1b60d21b6064820152608401610489565b843b6115ff5760405162461bcd60e51b815260206004820152601d60248201527f416464726573733a2063616c6c20746f206e6f6e2d636f6e74726163740000006044820152606401610489565b600080866001600160a01b0316858760405161161b9190611802565b60006040518083038185875af1925050503d8060008114611658576040519150601f19603f3d011682016040523d82523d6000602084013e61165d565b606091505b509150915061166d828286611678565b979650505050505050565b6060831561168757508161141a565b8251156116975782518084602001fd5b8160405162461bcd60e51b8152600401610489919061181e565b6000602082840312156116c357600080fd5b813561141a81611a3b565b6000602082840312156116e057600080fd5b815161141a81611a3b565b600080604083850312156116fe57600080fd5b823561170981611a3b565b946020939093013593505050565b60006020828403121561172957600080fd5b8151801515811461141a57600080fd5b60006020828403121561174b57600080fd5b5035919050565b60006020828403121561176457600080fd5b5051919050565b6000806040838503121561177e57600080fd5b50508035926020909101359150565b600080604083850312156117a057600080fd5b505080516020909101519092909150565b6000806000606084860312156117c657600080fd5b8351925060208401519150604084015190509250925092565b6000602082840312156117f157600080fd5b815160ff8116811461141a57600080fd5b600082516118148184602087016119f5565b9190910192915050565b602081526000825180602084015261183d8160408501602087016119f5565b601f01601f19169190910160400192915050565b60208082526026908201527f46756e6374696f6e2063616c6c65642066726f6d206e6f6e2061646d696e207760408201526530b63632ba1760d11b606082015260800190565b600082198211156118aa576118aa611a25565b500190565b6000826118cc57634e487b7160e01b600052601260045260246000fd5b500490565b600181815b8085111561190c5781600019048211156118f2576118f2611a25565b808516156118ff57918102915b93841c93908002906118d6565b509250929050565b600061141a60ff84168360008261192d5750600161123e565b8161193a5750600061123e565b8160018114611950576002811461195a57611976565b600191505061123e565b60ff84111561196b5761196b611a25565b50506001821b61123e565b5060208310610133831016604e8410600b8410161715611999575081810a61123e565b6119a383836118d1565b80600019048211156119b7576119b7611a25565b029392505050565b60008160001904831182151516156119d9576119d9611a25565b500290565b6000828210156119f0576119f0611a25565b500390565b60005b83811015611a105781810151838201526020016119f8565b83811115611a1f576000848401525b50505050565b634e487b7160e01b600052601160045260246000fd5b6001600160a01b0381168114611a5057600080fd5b5056fea2646970667358221220f8f5f50c1bd89cb8ffdbb8371cfd01517a7f8b38799977f60a73c82536a9789a64736f6c63430008060033",
  "immutableReferences": {},
  "source": "// SPDX-License-Identifier: Unlicensed\npragma solidity ^0.8.4;\ninterface IERC20 {\n    function totalSupply() external view returns (uint256);\n    function balanceOf(address account) external view returns (uint256);\n    function decimals() external view returns(uint8);\n    function transfer(address recipient, uint256 amount) external returns (bool);\n    function allowance(address owner, address spender) external view returns (uint256);\n    function approve(address spender, uint256 amount) external returns (bool);\n    function transferFrom(address sender, address recipient, uint256 amount) external returns (bool);\n    event Transfer(address indexed from, address indexed to, uint256 value);\n    event Approval(address indexed owner, address indexed spender, uint256 value);\n}\nlibrary SafeMath {\n    function add(uint256 a, uint256 b) internal pure returns (uint256) {\n        uint256 c = a + b;\n        require(c >= a, \"SafeMath: addition overflow\");\n\n        return c;\n    }\n    function sub(uint256 a, uint256 b) internal pure returns (uint256) {\n        return sub(a, b, \"SafeMath: subtraction overflow\");\n    }\n    function sub(uint256 a, uint256 b, string memory errorMessage) internal pure returns (uint256) {\n        require(b <= a, errorMessage);\n        uint256 c = a - b;\n\n        return c;\n    }\n\n    function mul(uint256 a, uint256 b) internal pure returns (uint256) {\n        // Gas optimization: this is cheaper than requiring 'a' not being zero, but the\n        // benefit is lost if 'b' is also tested.\n        // See: https://github.com/OpenZeppelin/openzeppelin-contracts/pull/522\n        if (a == 0) {\n            return 0;\n        }\n\n        uint256 c = a * b;\n        require(c / a == b, \"SafeMath: multiplication overflow\");\n\n        return c;\n    }\n\n    /**\n     * @dev Returns the integer division of two unsigned integers. Reverts on\n     * division by zero. The result is rounded towards zero.\n     *\n     * Counterpart to Solidity's `/` operator. Note: this function uses a\n     * `revert` opcode (which leaves remaining gas untouched) while Solidity\n     * uses an invalid opcode to revert (consuming all remaining gas).\n     *\n     * Requirements:\n     *\n     * - The divisor cannot be zero.\n     */\n    function div(uint256 a, uint256 b) internal pure returns (uint256) {\n        return div(a, b, \"SafeMath: division by zero\");\n    }\n\n    /**\n     * @dev Returns the integer division of two unsigned integers. Reverts with custom message on\n     * division by zero. The result is rounded towards zero.\n     *\n     * Counterpart to Solidity's `/` operator. Note: this function uses a\n     * `revert` opcode (which leaves remaining gas untouched) while Solidity\n     * uses an invalid opcode to revert (consuming all remaining gas).\n     *\n     * Requirements:\n     *\n     * - The divisor cannot be zero.\n     */\n    function div(uint256 a, uint256 b, string memory errorMessage) internal pure returns (uint256) {\n        require(b > 0, errorMessage);\n        uint256 c = a / b;\n        // assert(a == b * c + a % b); // There is no case in which this doesn't hold\n\n        return c;\n    }\n\n    /**\n     * @dev Returns the remainder of dividing two unsigned integers. (unsigned integer modulo),\n     * Reverts when dividing by zero.\n     *\n     * Counterpart to Solidity's `%` operator. This function uses a `revert`\n     * opcode (which leaves remaining gas untouched) while Solidity uses an\n     * invalid opcode to revert (consuming all remaining gas).\n     *\n     * Requirements:\n     *\n     * - The divisor cannot be zero.\n     */\n    function mod(uint256 a, uint256 b) internal pure returns (uint256) {\n        return mod(a, b, \"SafeMath: modulo by zero\");\n    }\n\n    /**\n     * @dev Returns the remainder of dividing two unsigned integers. (unsigned integer modulo),\n     * Reverts with custom message when dividing by zero.\n     *\n     * Counterpart to Solidity's `%` operator. This function uses a `revert`\n     * opcode (which leaves remaining gas untouched) while Solidity uses an\n     * invalid opcode to revert (consuming all remaining gas).\n     *\n     * Requirements:\n     *\n     * - The divisor cannot be zero.\n     */\n    function mod(uint256 a, uint256 b, string memory errorMessage) internal pure returns (uint256) {\n        require(b != 0, errorMessage);\n        return a % b;\n    }\n}\nabstract contract Context {\n    function _msgSender() internal view virtual returns (address payable) {\n        return payable(msg.sender);\n    }\n\n    function _msgData() internal view virtual returns (bytes memory) {\n        this;\n        return msg.data;\n    }\n}\n\nlibrary Address {\n    /**\n     * @dev Returns true if `account` is a contract.\n     *\n     * [IMPORTANT]\n     * ====\n     * It is unsafe to assume that an address for which this function returns\n     * false is an externally-owned account (EOA) and not a contract.\n     *\n     * Among others, `isContract` will return false for the following\n     * types of addresses:\n     *\n     *  - an externally-owned account\n     *  - a contract in construction\n     *  - an address where a contract will be created\n     *  - an address where a contract lived, but was destroyed\n     * ====\n     */\n    function isContract(address account) internal view returns (bool) {\n        // This method relies on extcodesize, which returns 0 for contracts in\n        // construction, since the code is only stored at the end of the\n        // constructor execution.\n\n        uint256 size;\n        assembly {\n            size := extcodesize(account)\n        }\n        return size > 0;\n    }\n\n    /**\n     * @dev Replacement for Solidity's `transfer`: sends `amount` wei to\n     * `recipient`, forwarding all available gas and reverting on errors.\n     *\n     * https://eips.ethereum.org/EIPS/eip-1884[EIP1884] increases the gas cost\n     * of certain opcodes, possibly making contracts go over the 2300 gas limit\n     * imposed by `transfer`, making them unable to receive funds via\n     * `transfer`. {sendValue} removes this limitation.\n     *\n     * https://diligence.consensys.net/posts/2019/09/stop-using-soliditys-transfer-now/[Learn more].\n     *\n     * IMPORTANT: because control is transferred to `recipient`, care must be\n     * taken to not create reentrancy vulnerabilities. Consider using\n     * {ReentrancyGuard} or the\n     * https://solidity.readthedocs.io/en/v0.5.11/security-considerations.html#use-the-checks-effects-interactions-pattern[checks-effects-interactions pattern].\n     */\n    function sendValue(address payable recipient, uint256 amount) internal {\n        require(address(this).balance >= amount, \"Address: insufficient balance\");\n\n        (bool success, ) = recipient.call{value: amount}(\"\");\n        require(success, \"Address: unable to send value, recipient may have reverted\");\n    }\n\n    /**\n     * @dev Performs a Solidity function call using a low level `call`. A\n     * plain `call` is an unsafe replacement for a function call: use this\n     * function instead.\n     *\n     * If `target` reverts with a revert reason, it is bubbled up by this\n     * function (like regular Solidity function calls).\n     *\n     * Returns the raw returned data. To convert to the expected return value,\n     * use https://solidity.readthedocs.io/en/latest/units-and-global-variables.html?highlight=abi.decode#abi-encoding-and-decoding-functions[`abi.decode`].\n     *\n     * Requirements:\n     *\n     * - `target` must be a contract.\n     * - calling `target` with `data` must not revert.\n     *\n     * _Available since v3.1._\n     */\n    function functionCall(address target, bytes memory data) internal returns (bytes memory) {\n        return functionCall(target, data, \"Address: low-level call failed\");\n    }\n\n    /**\n     * @dev Same as {xref-Address-functionCall-address-bytes-}[`functionCall`], but with\n     * `errorMessage` as a fallback revert reason when `target` reverts.\n     *\n     * _Available since v3.1._\n     */\n    function functionCall(\n        address target,\n        bytes memory data,\n        string memory errorMessage\n    ) internal returns (bytes memory) {\n        return functionCallWithValue(target, data, 0, errorMessage);\n    }\n\n    /**\n     * @dev Same as {xref-Address-functionCall-address-bytes-}[`functionCall`],\n     * but also transferring `value` wei to `target`.\n     *\n     * Requirements:\n     *\n     * - the calling contract must have an ETH balance of at least `value`.\n     * - the called Solidity function must be `payable`.\n     *\n     * _Available since v3.1._\n     */\n    function functionCallWithValue(\n        address target,\n        bytes memory data,\n        uint256 value\n    ) internal returns (bytes memory) {\n        return functionCallWithValue(target, data, value, \"Address: low-level call with value failed\");\n    }\n\n    /**\n     * @dev Same as {xref-Address-functionCallWithValue-address-bytes-uint256-}[`functionCallWithValue`], but\n     * with `errorMessage` as a fallback revert reason when `target` reverts.\n     *\n     * _Available since v3.1._\n     */\n    function functionCallWithValue(\n        address target,\n        bytes memory data,\n        uint256 value,\n        string memory errorMessage\n    ) internal returns (bytes memory) {\n        require(address(this).balance >= value, \"Address: insufficient balance for call\");\n        require(isContract(target), \"Address: call to non-contract\");\n\n        (bool success, bytes memory returndata) = target.call{value: value}(data);\n        return verifyCallResult(success, returndata, errorMessage);\n    }\n\n    /**\n     * @dev Same as {xref-Address-functionCall-address-bytes-}[`functionCall`],\n     * but performing a static call.\n     *\n     * _Available since v3.3._\n     */\n    function functionStaticCall(address target, bytes memory data) internal view returns (bytes memory) {\n        return functionStaticCall(target, data, \"Address: low-level static call failed\");\n    }\n\n    /**\n     * @dev Same as {xref-Address-functionCall-address-bytes-string-}[`functionCall`],\n     * but performing a static call.\n     *\n     * _Available since v3.3._\n     */\n    function functionStaticCall(\n        address target,\n        bytes memory data,\n        string memory errorMessage\n    ) internal view returns (bytes memory) {\n        require(isContract(target), \"Address: static call to non-contract\");\n\n        (bool success, bytes memory returndata) = target.staticcall(data);\n        return verifyCallResult(success, returndata, errorMessage);\n    }\n\n    /**\n     * @dev Same as {xref-Address-functionCall-address-bytes-}[`functionCall`],\n     * but performing a delegate call.\n     *\n     * _Available since v3.4._\n     */\n    function functionDelegateCall(address target, bytes memory data) internal returns (bytes memory) {\n        return functionDelegateCall(target, data, \"Address: low-level delegate call failed\");\n    }\n\n    /**\n     * @dev Same as {xref-Address-functionCall-address-bytes-string-}[`functionCall`],\n     * but performing a delegate call.\n     *\n     * _Available since v3.4._\n     */\n    function functionDelegateCall(\n        address target,\n        bytes memory data,\n        string memory errorMessage\n    ) internal returns (bytes memory) {\n        require(isContract(target), \"Address: delegate call to non-contract\");\n\n        (bool success, bytes memory returndata) = target.delegatecall(data);\n        return verifyCallResult(success, returndata, errorMessage);\n    }\n\n    /**\n     * @dev Tool to verifies that a low level call was successful, and revert if it wasn't, either by bubbling the\n     * revert reason using the provided one.\n     *\n     * _Available since v4.3._\n     */\n    function verifyCallResult(\n        bool success,\n        bytes memory returndata,\n        string memory errorMessage\n    ) internal pure returns (bytes memory) {\n        if (success) {\n            return returndata;\n        } else {\n            // Look for revert reason and bubble it up if present\n            if (returndata.length > 0) {\n                // The easiest way to bubble the revert reason is using memory via assembly\n\n                assembly {\n                    let returndata_size := mload(returndata)\n                    revert(add(32, returndata), returndata_size)\n                }\n            } else {\n                revert(errorMessage);\n            }\n        }\n    }\n}\n\nlibrary SafeERC20 {\n    using Address for address;\n\n    function safeTransfer(\n        IERC20 token,\n        address to,\n        uint256 value\n    ) internal {\n        _callOptionalReturn(token, abi.encodeWithSelector(token.transfer.selector, to, value));\n    }\n\n    function safeTransferFrom(\n        IERC20 token,\n        address from,\n        address to,\n        uint256 value\n    ) internal {\n        _callOptionalReturn(token, abi.encodeWithSelector(token.transferFrom.selector, from, to, value));\n    }\n\n    /**\n     * @dev Deprecated. This function has issues similar to the ones found in\n     * {IERC20-approve}, and its usage is discouraged.\n     *\n     * Whenever possible, use {safeIncreaseAllowance} and\n     * {safeDecreaseAllowance} instead.\n     */\n    function safeApprove(\n        IERC20 token,\n        address spender,\n        uint256 value\n    ) internal {\n        // safeApprove should only be called when setting an initial allowance,\n        // or when resetting it to zero. To increase and decrease it, use\n        // 'safeIncreaseAllowance' and 'safeDecreaseAllowance'\n        require(\n            (value == 0) || (token.allowance(address(this), spender) == 0),\n            \"SafeERC20: approve from non-zero to non-zero allowance\"\n        );\n        _callOptionalReturn(token, abi.encodeWithSelector(token.approve.selector, spender, value));\n    }\n\n    function safeIncreaseAllowance(\n        IERC20 token,\n        address spender,\n        uint256 value\n    ) internal {\n        uint256 newAllowance = token.allowance(address(this), spender) + value;\n        _callOptionalReturn(token, abi.encodeWithSelector(token.approve.selector, spender, newAllowance));\n    }\n\n    function safeDecreaseAllowance(\n        IERC20 token,\n        address spender,\n        uint256 value\n    ) internal {\n        unchecked {\n            uint256 oldAllowance = token.allowance(address(this), spender);\n            require(oldAllowance >= value, \"SafeERC20: decreased allowance below zero\");\n            uint256 newAllowance = oldAllowance - value;\n            _callOptionalReturn(token, abi.encodeWithSelector(token.approve.selector, spender, newAllowance));\n        }\n    }\n\n    /**\n     * @dev Imitates a Solidity high-level call (i.e. a regular function call to a contract), relaxing the requirement\n     * on the return value: the return value is optional (but if data is returned, it must not be false).\n     * @param token The token targeted by the call.\n     * @param data The call data (encoded using abi.encode or one of its variants).\n     */\n    function _callOptionalReturn(IERC20 token, bytes memory data) private {\n        // We need to perform a low level call here, to bypass Solidity's return data size checking mechanism, since\n        // we're implementing it ourselves. We use {Address.functionCall} to perform this call, which verifies that\n        // the target address contains contract code and also asserts for success in the low-level call.\n\n        bytes memory returndata = address(token).functionCall(data, \"SafeERC20: low-level call failed\");\n        if (returndata.length > 0) {\n            // Return data is optional\n            require(abi.decode(returndata, (bool)), \"SafeERC20: ERC20 operation did not succeed\");\n        }\n    }\n}\n\nabstract contract ReentrancyGuard {\n    // Booleans are more expensive than uint256 or any type that takes up a full\n    // word because each write operation emits an extra SLOAD to first read the\n    // slot's contents, replace the bits taken up by the boolean, and then write\n    // back. This is the compiler's defense against contract upgrades and\n    // pointer aliasing, and it cannot be disabled.\n\n    // The values being non-zero value makes deployment a bit more expensive,\n    // but in exchange the refund on every call to nonReentrant will be lower in\n    // amount. Since refunds are capped to a percentage of the total\n    // transaction's gas, it is best to keep them low in cases like this one, to\n    // increase the likelihood of the full refund coming into effect.\n    uint256 private constant _NOT_ENTERED = 1;\n    uint256 private constant _ENTERED = 2;\n\n    uint256 private _status;\n\n    constructor() {\n        _status = _NOT_ENTERED;\n    }\n\n    /**\n     * @dev Prevents a contract from calling itself, directly or indirectly.\n     * Calling a `nonReentrant` function from another `nonReentrant`\n     * function is not supported. It is possible to prevent this from happening\n     * by making the `nonReentrant` function external, and make it call a\n     * `private` function that does the actual work.\n     */\n    modifier nonReentrant() {\n        // On the first call to nonReentrant, _notEntered will be true\n        require(_status != _ENTERED, \"ReentrancyGuard: reentrant call\");\n\n        // Any calls to nonReentrant after this point will fail\n        _status = _ENTERED;\n\n        _;\n\n        // By storing the original value once again, a refund is triggered (see\n        // https://eips.ethereum.org/EIPS/eip-2200)\n        _status = _NOT_ENTERED;\n    }\n}\n\n\ninterface IUniswapV2Factory {\n    event PairCreated(address indexed token0, address indexed token1, address pair, uint);\n\n    function feeTo() external view returns (address);\n    function feeToSetter() external view returns (address);\n\n    function getPair(address tokenA, address tokenB) external view returns (address pair);\n    function allPairs(uint) external view returns (address pair);\n    function allPairsLength() external view returns (uint);\n\n    function createPair(address tokenA, address tokenB) external returns (address pair);\n\n    function setFeeTo(address) external;\n    function setFeeToSetter(address) external;\n}\n\ninterface IUniswapV2Pair {\n    event Approval(address indexed owner, address indexed spender, uint value);\n    event Transfer(address indexed from, address indexed to, uint value);\n\n    function name() external pure returns (string memory);\n    function symbol() external pure returns (string memory);\n    function decimals() external pure returns (uint8);\n    function totalSupply() external view returns (uint);\n    function balanceOf(address owner) external view returns (uint);\n    function allowance(address owner, address spender) external view returns (uint);\n\n    function approve(address spender, uint value) external returns (bool);\n    function transfer(address to, uint value) external returns (bool);\n    function transferFrom(address from, address to, uint value) external returns (bool);\n\n    function DOMAIN_SEPARATOR() external view returns (bytes32);\n    function PERMIT_TYPEHASH() external pure returns (bytes32);\n    function nonces(address owner) external view returns (uint);\n\n    function permit(address owner, address spender, uint value, uint deadline, uint8 v, bytes32 r, bytes32 s) external;\n\n    event Mint(address indexed sender, uint amount0, uint amount1);\n    event Burn(address indexed sender, uint amount0, uint amount1, address indexed to);\n    event Swap(\n        address indexed sender,\n        uint amount0In,\n        uint amount1In,\n        uint amount0Out,\n        uint amount1Out,\n        address indexed to\n    );\n    event Sync(uint112 reserve0, uint112 reserve1);\n\n    function MINIMUM_LIQUIDITY() external pure returns (uint);\n    function factory() external view returns (address);\n    function token0() external view returns (address);\n    function token1() external view returns (address);\n    function getReserves() external view returns (uint112 reserve0, uint112 reserve1, uint32 blockTimestampLast);\n    function price0CumulativeLast() external view returns (uint);\n    function price1CumulativeLast() external view returns (uint);\n    function kLast() external view returns (uint);\n\n    function mint(address to) external returns (uint liquidity);\n    function burn(address to) external returns (uint amount0, uint amount1);\n    function swap(uint amount0Out, uint amount1Out, address to, bytes calldata data) external;\n    function skim(address to) external;\n    function sync() external;\n\n    function initialize(address, address) external;\n}\n\ninterface IUniswapV2Router01 {\n    function factory() external pure returns (address);\n    function WETH() external pure returns (address);\n\n    function addLiquidity(\n        address tokenA,\n        address tokenB,\n        uint amountADesired,\n        uint amountBDesired,\n        uint amountAMin,\n        uint amountBMin,\n        address to,\n        uint deadline\n    ) external returns (uint amountA, uint amountB, uint liquidity);\n    function addLiquidityETH(\n        address token,\n        uint amountTokenDesired,\n        uint amountTokenMin,\n        uint amountETHMin,\n        address to,\n        uint deadline\n    ) external payable returns (uint amountToken, uint amountETH, uint liquidity);\n    function removeLiquidity(\n        address tokenA,\n        address tokenB,\n        uint liquidity,\n        uint amountAMin,\n        uint amountBMin,\n        address to,\n        uint deadline\n    ) external returns (uint amountA, uint amountB);\n    function removeLiquidityETH(\n        address token,\n        uint liquidity,\n        uint amountTokenMin,\n        uint amountETHMin,\n        address to,\n        uint deadline\n    ) external returns (uint amountToken, uint amountETH);\n    function removeLiquidityWithPermit(\n        address tokenA,\n        address tokenB,\n        uint liquidity,\n        uint amountAMin,\n        uint amountBMin,\n        address to,\n        uint deadline,\n        bool approveMax, uint8 v, bytes32 r, bytes32 s\n    ) external returns (uint amountA, uint amountB);\n    function removeLiquidityETHWithPermit(\n        address token,\n        uint liquidity,\n        uint amountTokenMin,\n        uint amountETHMin,\n        address to,\n        uint deadline,\n        bool approveMax, uint8 v, bytes32 r, bytes32 s\n    ) external returns (uint amountToken, uint amountETH);\n    function swapExactTokensForTokens(\n        uint amountIn,\n        uint amountOutMin,\n        address[] calldata path,\n        address to,\n        uint deadline\n    ) external returns (uint[] memory amounts);\n    function swapTokensForExactTokens(\n        uint amountOut,\n        uint amountInMax,\n        address[] calldata path,\n        address to,\n        uint deadline\n    ) external returns (uint[] memory amounts);\n    function swapExactETHForTokens(uint amountOutMin, address[] calldata path, address to, uint deadline)\n        external\n        payable\n        returns (uint[] memory amounts);\n    function swapTokensForExactETH(uint amountOut, uint amountInMax, address[] calldata path, address to, uint deadline)\n        external\n        returns (uint[] memory amounts);\n    function swapExactTokensForETH(uint amountIn, uint amountOutMin, address[] calldata path, address to, uint deadline)\n        external\n        returns (uint[] memory amounts);\n    function swapETHForExactTokens(uint amountOut, address[] calldata path, address to, uint deadline)\n        external\n        payable\n        returns (uint[] memory amounts);\n\n    function quote(uint amountA, uint reserveA, uint reserveB) external pure returns (uint amountB);\n    function getAmountOut(uint amountIn, uint reserveIn, uint reserveOut) external pure returns (uint amountOut);\n    function getAmountIn(uint amountOut, uint reserveIn, uint reserveOut) external pure returns (uint amountIn);\n    function getAmountsOut(uint amountIn, address[] calldata path) external view returns (uint[] memory amounts);\n    function getAmountsIn(uint amountOut, address[] calldata path) external view returns (uint[] memory amounts);\n}\n\ninterface IUniswapV2Router02 is IUniswapV2Router01 {\n    function removeLiquidityETHSupportingFeeOnTransferTokens(\n        address token,\n        uint liquidity,\n        uint amountTokenMin,\n        uint amountETHMin,\n        address to,\n        uint deadline\n    ) external returns (uint amountETH);\n    function removeLiquidityETHWithPermitSupportingFeeOnTransferTokens(\n        address token,\n        uint liquidity,\n        uint amountTokenMin,\n        uint amountETHMin,\n        address to,\n        uint deadline,\n        bool approveMax, uint8 v, bytes32 r, bytes32 s\n    ) external returns (uint amountETH);\n\n    function swapExactTokensForTokensSupportingFeeOnTransferTokens(\n        uint amountIn,\n        uint amountOutMin,\n        address[] calldata path,\n        address to,\n        uint deadline\n    ) external;\n    function swapExactETHForTokensSupportingFeeOnTransferTokens(\n        uint amountOutMin,\n        address[] calldata path,\n        address to,\n        uint deadline\n    ) external payable;\n    function swapExactTokensForETHSupportingFeeOnTransferTokens(\n        uint amountIn,\n        uint amountOutMin,\n        address[] calldata path,\n        address to,\n        uint deadline\n    ) external;\n}\n\ncontract EquinoxIco is Context, ReentrancyGuard {\n    using SafeMath for uint256;\n    using SafeERC20 for IERC20;\n    IERC20 private _token;\n    address private _multisig;\n    address private _wallet;\n    uint256 private _weiRaised;\n    uint256 private _rate;\n    uint256 private _startTime;\n    uint256 private _endTime;\n    uint256 private _minBuy;\n    uint256 private _maxBuy;\n    uint256 private _softCap;\n    uint256 private _hardCap;\n\n    IUniswapV2Router02 public router;\n    address public pair;\n    uint256 public bnbLockTime;\n    uint256 public liquidityLockTime;\n\n    mapping(address => uint256) public _contributions;\n\n    modifier onlyOwner(){\n        require(_wallet == _msgSender(), \"Function called from non admin wallet.\");\n        _;\n    }\n\n    modifier ifPresaleOpen(){\n        require(block.timestamp >= _startTime, \"\");\n        require(block.timestamp <= _endTime, \"\");\n        _;\n    }\n\n    modifier ifPresaleEnded(){\n        require(block.timestamp >= _endTime, \"Presale is still open\");\n        _;\n    }\n\n    modifier ifSoftcapReached(){\n        uint256 totalSold = _getTokenAmount(_weiRaised);\n        require(totalSold >= _softCap, \"Soft cap not reached\");\n        _;\n    }\n\n    event TokensPurchased(address indexed wallet, address indexed account, uint256 amount, uint256 tokenAmount);\n    event Claimed(address indexed wallet, uint256 amount);\n    event Deposited(address indexed wallet, uint256 amount);\n    event LiquidityAdded(address owner, uint256 amountToken, uint256 bnbAmount);\n    event LiquidityRemoved(address owner);\n    \n    constructor (IERC20 token_, address multisig_, uint256 startTime_, uint256 endTime_, uint256 rate_, uint256 softCap_, uint256 hardCap_, address router_) {\n        require(address(token_) != address(0), \"Crowdsale: token is the zero address\");\n        _token = token_;\n        _startTime = startTime_;\n        _endTime = endTime_;\n        _wallet = _msgSender();\n        _multisig = multisig_;\n        _softCap = softCap_;\n        _hardCap = hardCap_;\n        _rate = rate_;\n\n        IUniswapV2Router02 _uniswapV2Router = IUniswapV2Router02(router_);\n        pair = IUniswapV2Factory(_uniswapV2Router.factory())\n            .createPair(address(_token), _uniswapV2Router.WETH());\n        router = _uniswapV2Router;\n\n    }\n\n    receive() external payable {\n        buyTokens(_msgSender());\n    }\n\n    function token() public view returns (IERC20) {\n        return _token;\n    }\n\n    \n    function wallet() public view returns (address) {\n        return _wallet;\n    }\n\n \n    function rate() public view returns (uint256) {\n        return _rate;\n    }\n    \n    function multisigAddress() public view returns(address){\n        return _multisig;\n    }\n\n    function changeRate(uint256 rate_) public onlyOwner {\n        _rate = rate_;\n    }\n\n   \n    function weiRaised() public view returns (uint256) {\n        return _weiRaised;\n    }\n\n    function buyTokens(address beneficiary) public nonReentrant ifPresaleOpen payable {\n        require(block.timestamp >= _startTime, \"Presale has not started yet.\");\n        require(block.timestamp <= _endTime, \"Presale has already ended.\");\n        uint256 weiAmount = msg.value;\n        require(weiAmount > 0, \"Amount should be greater then 0.\");\n        _preValidatePurchase(beneficiary, weiAmount);\n        _ifEligible(beneficiary, weiAmount);\n        _contributions[beneficiary] += weiAmount;\n        emit Deposited(beneficiary, weiAmount);\n        _weiRaised += weiAmount;\n    }\n\n    function _preValidatePurchase(address beneficiary, uint256 weiAmount) internal view {\n        require(beneficiary != address(0), \"Crowdsale: beneficiary is the zero address\");\n        require(weiAmount != 0, \"Crowdsale: weiAmount is 0\");\n        this;\n    }\n\n    function _postValidatePurchase(address beneficiary, uint256 weiAmount) internal view {\n        // solhint-disable-previous-line no-empty-blocks\n    }\n\n    function _deliverTokens(address beneficiary, uint256 tokenAmount) internal {\n        _token.safeTransfer(beneficiary, tokenAmount);\n    }\n\n    function _processPurchase(address beneficiary, uint256 tokenAmount) internal {\n        _contributions[beneficiary] = 0;\n        _deliverTokens(beneficiary, tokenAmount);\n    }\n\n    function _updatePurchasingState(address beneficiary, uint256 weiAmount) internal {\n        // solhint-disable-previous-line no-empty-blocks\n    }\n\n    function _getTokenAmount(uint256 weiAmount) internal view returns (uint256) {\n        return weiAmount.mul(_rate);\n    }\n\n    function _forwardFunds(uint256 amount) internal {\n        payable(_wallet).transfer(amount);\n    }\n    \n    function changeToken(IERC20 token_) public onlyOwner {\n        _token = token_;\n    }\n    \n    function provideLiquidity(uint256 tokenAmount, uint256 bnbAmount) public onlyOwner ifPresaleEnded ifSoftcapReached {\n        bnbLockTime = block.timestamp + 30 days;\n        liquidityLockTime = block.timestamp + 90 days;\n        _addLiquidity(tokenAmount, bnbAmount);\n        emit LiquidityAdded(address(this), tokenAmount, bnbAmount);\n    }\n\n    function _addLiquidity(uint256 tokenAmount, uint256 ethAmount) internal {\n        _token.approve(address(router), tokenAmount);\n        router.addLiquidityETH{value: ethAmount}(\n            address(_token),\n            tokenAmount,\n            0, // slippage is unavoidable\n            0, // slippage is unavoidable\n            address(this),\n            block.timestamp\n        );\n    }\n\n\n    function removeLiquidity() public onlyOwner {\n        require(liquidityLockTime < block.timestamp, \"Still locked.\");\n        uint liquidity = IERC20(pair).balanceOf(address(this));\n        IERC20(pair).approve(address(router), liquidity);\n        router.removeLiquidity(address(_token), router.WETH(), liquidity, 0, 0, address(this), block.timestamp);\n        emit LiquidityRemoved(address(this));\n    }\n\n    function sendTokenToMultisig(uint256 amount) public onlyOwner {\n        _token.transfer(_multisig, amount);\n    }\n\n    function drainBnb(address wallet_, uint256 amount) public onlyOwner {\n        require(bnbLockTime < block.timestamp, \"BNB locked\");\n        payable(wallet_).transfer(amount);\n    }\n\n    function withdrawETH() public {\n        uint256 weiContributed = _contributions[_msgSender()];\n        require(weiContributed > 0, \"Wallat have no contribution.\");\n        _contributions[_msgSender()] = 0;\n        _weiRaised -= weiContributed;\n        payable(_msgSender()).transfer(weiContributed);\n    }\n\n    function claim() public {\n        address beneficiary = _msgSender();\n        uint256 weiAmount = _contributions[beneficiary];\n        require(weiAmount > 0, \"Wallet has no contribution.\");\n        uint256 tokenAmount = _getTokenAmount(weiAmount);\n        emit TokensPurchased(_msgSender(), beneficiary, weiAmount, tokenAmount);\n        _processPurchase(beneficiary, tokenAmount);\n        emit Claimed(beneficiary, tokenAmount);\n    }\n\n    function _ifEligible(address beneficiary,uint256 weiAmount) internal view {\n        weiAmount += _contributions[beneficiary];\n        uint256 tokenAmount = _getTokenAmount(weiAmount);\n        tokenAmount += _token.balanceOf(beneficiary);\n        require(tokenAmount >= _minBuy, \"Can not be less than minimum buy.\");\n        this;\n    }\n    \n    function changeStartTime(uint256 startTime_) public onlyOwner {\n        _startTime = startTime_;\n    }\n\n    function chageEndtime(uint256 endTime_) public onlyOwner {\n        _endTime = endTime_;\n    }\n    \n    function changeOwnership(address wallet_) public onlyOwner {\n        _wallet = wallet_;\n    }\n    \n    function setMinBuy(uint256 minBuy_) public onlyOwner {\n        _minBuy = minBuy_ * 10**_token.decimals();\n    }\n    \n    function setMaxBuy(uint256 maxBuy_) public onlyOwner {\n        _maxBuy = maxBuy_ * 10**_token.decimals();\n    }\n    \n}",
  "sourcePath": "/home/linux/Documents/equinoxapp-master/contracts/EqunoxIco.sol",
  "compiler": {
    "name": "solc",
    "version": "0.8.6+commit.11564f7e.Emscripten.clang"
  },
  "schemaVersion": "3.4.3",
  "updatedAt": "2022-01-08T11:14:50.120Z",
  "devdoc": {
    "kind": "dev",
    "methods": {},
    "version": 1
  },
  "userdoc": {
    "kind": "user",
    "methods": {},
    "version": 1
  }
}