{
  "contractName": "MultiSigv2",
  "abi": [
    {
      "inputs": [
        {
          "internalType": "address[]",
          "name": "initialSigners",
          "type": "address[]"
        },
        {
          "internalType": "address",
          "name": "_equinox",
          "type": "address"
        },
        {
          "internalType": "uint256",
          "name": "_amountNeeded",
          "type": "uint256"
        }
      ],
      "stateMutability": "nonpayable",
      "type": "constructor"
    },
    {
      "inputs": [],
      "name": "amountNeeded",
      "outputs": [
        {
          "internalType": "uint256",
          "name": "",
          "type": "uint256"
        }
      ],
      "stateMutability": "view",
      "type": "function"
    },
    {
      "inputs": [
        {
          "internalType": "address",
          "name": "",
          "type": "address"
        }
      ],
      "name": "canSign",
      "outputs": [
        {
          "internalType": "bool",
          "name": "",
          "type": "bool"
        }
      ],
      "stateMutability": "view",
      "type": "function"
    },
    {
      "inputs": [],
      "name": "equinox",
      "outputs": [
        {
          "internalType": "address",
          "name": "",
          "type": "address"
        }
      ],
      "stateMutability": "view",
      "type": "function"
    },
    {
      "inputs": [],
      "name": "gToken",
      "outputs": [
        {
          "internalType": "contract IERC20",
          "name": "",
          "type": "address"
        }
      ],
      "stateMutability": "view",
      "type": "function"
    },
    {
      "inputs": [
        {
          "internalType": "uint256",
          "name": "",
          "type": "uint256"
        }
      ],
      "name": "members",
      "outputs": [
        {
          "internalType": "address",
          "name": "member",
          "type": "address"
        },
        {
          "internalType": "bool",
          "name": "finalized",
          "type": "bool"
        }
      ],
      "stateMutability": "view",
      "type": "function"
    },
    {
      "inputs": [
        {
          "internalType": "uint256",
          "name": "",
          "type": "uint256"
        }
      ],
      "name": "proposals",
      "outputs": [
        {
          "internalType": "address",
          "name": "to",
          "type": "address"
        },
        {
          "internalType": "uint256",
          "name": "amount",
          "type": "uint256"
        },
        {
          "internalType": "uint256",
          "name": "tokenAmount",
          "type": "uint256"
        },
        {
          "internalType": "address",
          "name": "tokenAddress",
          "type": "address"
        },
        {
          "internalType": "bool",
          "name": "finalized",
          "type": "bool"
        }
      ],
      "stateMutability": "view",
      "type": "function"
    },
    {
      "inputs": [
        {
          "internalType": "uint256",
          "name": "",
          "type": "uint256"
        },
        {
          "internalType": "address",
          "name": "",
          "type": "address"
        }
      ],
      "name": "removeMemberProposalSigned",
      "outputs": [
        {
          "internalType": "bool",
          "name": "",
          "type": "bool"
        }
      ],
      "stateMutability": "view",
      "type": "function"
    },
    {
      "inputs": [
        {
          "internalType": "uint256",
          "name": "",
          "type": "uint256"
        }
      ],
      "name": "signers",
      "outputs": [
        {
          "internalType": "address",
          "name": "",
          "type": "address"
        }
      ],
      "stateMutability": "view",
      "type": "function"
    },
    {
      "stateMutability": "payable",
      "type": "receive"
    },
    {
      "inputs": [
        {
          "internalType": "uint256",
          "name": "amount",
          "type": "uint256"
        },
        {
          "internalType": "uint256",
          "name": "tokenAmount",
          "type": "uint256"
        },
        {
          "internalType": "address",
          "name": "tokenAddress",
          "type": "address"
        },
        {
          "internalType": "address",
          "name": "to",
          "type": "address"
        }
      ],
      "name": "submitProposal",
      "outputs": [],
      "stateMutability": "nonpayable",
      "type": "function"
    },
    {
      "inputs": [],
      "name": "listRemoveMembers",
      "outputs": [
        {
          "components": [
            {
              "internalType": "address",
              "name": "member",
              "type": "address"
            },
            {
              "internalType": "bool",
              "name": "finalized",
              "type": "bool"
            }
          ],
          "internalType": "struct MultiSigv2.removeMember[]",
          "name": "",
          "type": "tuple[]"
        }
      ],
      "stateMutability": "view",
      "type": "function"
    },
    {
      "inputs": [
        {
          "internalType": "uint256",
          "name": "index",
          "type": "uint256"
        },
        {
          "internalType": "address",
          "name": "account",
          "type": "address"
        }
      ],
      "name": "hasRemoveMemberProposolSigned",
      "outputs": [
        {
          "internalType": "bool",
          "name": "",
          "type": "bool"
        }
      ],
      "stateMutability": "view",
      "type": "function"
    },
    {
      "inputs": [
        {
          "internalType": "address",
          "name": "_address",
          "type": "address"
        }
      ],
      "name": "removeMemberProposal",
      "outputs": [],
      "stateMutability": "nonpayable",
      "type": "function"
    },
    {
      "inputs": [],
      "name": "balance",
      "outputs": [
        {
          "internalType": "uint256",
          "name": "",
          "type": "uint256"
        }
      ],
      "stateMutability": "view",
      "type": "function"
    },
    {
      "inputs": [
        {
          "internalType": "uint256",
          "name": "proposalIndex",
          "type": "uint256"
        }
      ],
      "name": "signRemoveMemberProposal",
      "outputs": [],
      "stateMutability": "nonpayable",
      "type": "function"
    },
    {
      "inputs": [
        {
          "internalType": "uint256",
          "name": "proposalIndex",
          "type": "uint256"
        }
      ],
      "name": "sign",
      "outputs": [],
      "stateMutability": "nonpayable",
      "type": "function"
    },
    {
      "inputs": [
        {
          "internalType": "uint256",
          "name": "index",
          "type": "uint256"
        }
      ],
      "name": "removeProposalRequirementMet",
      "outputs": [
        {
          "internalType": "bool",
          "name": "",
          "type": "bool"
        }
      ],
      "stateMutability": "view",
      "type": "function"
    },
    {
      "inputs": [
        {
          "internalType": "uint256",
          "name": "index",
          "type": "uint256"
        }
      ],
      "name": "signerRequirementMet",
      "outputs": [
        {
          "internalType": "bool",
          "name": "",
          "type": "bool"
        }
      ],
      "stateMutability": "view",
      "type": "function"
    },
    {
      "inputs": [
        {
          "internalType": "uint256",
          "name": "index",
          "type": "uint256"
        },
        {
          "internalType": "address",
          "name": "icoTokenAddress",
          "type": "address"
        }
      ],
      "name": "finalizeProposal",
      "outputs": [],
      "stateMutability": "nonpayable",
      "type": "function"
    },
    {
      "inputs": [
        {
          "internalType": "uint256",
          "name": "index",
          "type": "uint256"
        }
      ],
      "name": "removeWalletMember",
      "outputs": [],
      "stateMutability": "nonpayable",
      "type": "function"
    },
    {
      "inputs": [
        {
          "internalType": "address",
          "name": "_address",
          "type": "address"
        }
      ],
      "name": "addMember",
      "outputs": [],
      "stateMutability": "nonpayable",
      "type": "function"
    },
    {
      "inputs": [],
      "name": "listSigners",
      "outputs": [
        {
          "internalType": "address[]",
          "name": "",
          "type": "address[]"
        }
      ],
      "stateMutability": "view",
      "type": "function"
    },
    {
      "inputs": [
        {
          "internalType": "uint256",
          "name": "amount",
          "type": "uint256"
        },
        {
          "internalType": "address",
          "name": "account",
          "type": "address"
        }
      ],
      "name": "transferGtoken",
      "outputs": [],
      "stateMutability": "nonpayable",
      "type": "function"
    },
    {
      "inputs": [],
      "name": "listProposals",
      "outputs": [
        {
          "components": [
            {
              "internalType": "address",
              "name": "to",
              "type": "address"
            },
            {
              "internalType": "uint256",
              "name": "amount",
              "type": "uint256"
            },
            {
              "internalType": "uint256",
              "name": "tokenAmount",
              "type": "uint256"
            },
            {
              "internalType": "address",
              "name": "tokenAddress",
              "type": "address"
            },
            {
              "internalType": "bool",
              "name": "finalized",
              "type": "bool"
            }
          ],
          "internalType": "struct MultiSigv2.Proposal[]",
          "name": "",
          "type": "tuple[]"
        }
      ],
      "stateMutability": "view",
      "type": "function"
    },
    {
      "inputs": [
        {
          "internalType": "uint256",
          "name": "index",
          "type": "uint256"
        }
      ],
      "name": "isSigned",
      "outputs": [
        {
          "internalType": "bool",
          "name": "",
          "type": "bool"
        }
      ],
      "stateMutability": "view",
      "type": "function"
    }
  ],
  "bytecode": "0x60806040523480156200001157600080fd5b506040516200189e3803806200189e8339810160408190526200003491620001a7565b8251600a8190556064906200004b906046620002c0565b6200005791906200029d565b600355600481905582516200007490600690602086019062000109565b50600780546001600160a01b0319166001600160a01b03841617905560005b8351811015620000ff57600160096000868481518110620000b857620000b862000316565b6020908102919091018101516001600160a01b03168252810191909152604001600020805460ff191691151591909117905580620000f681620002e2565b91505062000093565b5050505062000342565b82805482825590600052602060002090810192821562000161579160200282015b828111156200016157825182546001600160a01b0319166001600160a01b039091161782556020909201916001909101906200012a565b506200016f92915062000173565b5090565b5b808211156200016f576000815560010162000174565b80516001600160a01b0381168114620001a257600080fd5b919050565b600080600060608486031215620001bd57600080fd5b83516001600160401b0380821115620001d557600080fd5b818601915086601f830112620001ea57600080fd5b81516020828211156200020157620002016200032c565b8160051b604051601f19603f830116810181811086821117156200022957620002296200032c565b604052838152828101945085830182870184018c10156200024957600080fd5b600096505b84871015620002775762000262816200018a565b8652600196909601959483019483016200024e565b5097506200028990508882016200018a565b955050505050604084015190509250925092565b600082620002bb57634e487b7160e01b600052601260045260246000fd5b500490565b6000816000190483118215151615620002dd57620002dd62000300565b500290565b6000600019821415620002f957620002f962000300565b5060010190565b634e487b7160e01b600052601160045260246000fd5b634e487b7160e01b600052603260045260246000fd5b634e487b7160e01b600052604160045260246000fd5b61154c80620003526000396000f3fe60806040526004361061014f5760003560e01c806361afd74c116100b6578063a3e8a06d1161006f578063a3e8a06d14610479578063b69ef8a814610499578063b97defda146104ac578063ca6d56dc146104cc578063cbc8cc9b146104ec578063db072be51461052757600080fd5b806361afd74c1461038357806374d54698146103a357806376ffb9bd146103e95780637ef305201461040957806399c2a25014610439578063a065d7be1461045957600080fd5b806326c7eb1c1161010857806326c7eb1c146102875780632fb1b25f146102a957806338c904b9146102cb5780634629a3da146103045780635b767cda146103245780635daf08ca1461034457600080fd5b8063013cf08b1461015b57806302647210146101b757806311f646a3146101d957806313465104146101fb5780631ba11f441461022b5780632079fb9a1461024f57600080fd5b3661015657005b600080fd5b34801561016757600080fd5b5061017b6101763660046112d2565b610547565b604080516001600160a01b03968716815260208101959095528401929092529092166060820152901515608082015260a0015b60405180910390f35b3480156101c357600080fd5b506101cc610599565b6040516101ae9190611441565b3480156101e557600080fd5b506101ee610611565b6040516101ae9190611376565b34801561020757600080fd5b5061021b6102163660046112d2565b610673565b60405190151581526020016101ae565b34801561023757600080fd5b5061024160045481565b6040519081526020016101ae565b34801561025b57600080fd5b5061026f61026a3660046112d2565b610718565b6040516001600160a01b0390911681526020016101ae565b34801561029357600080fd5b5061029c610742565b6040516101ae91906113c3565b3480156102b557600080fd5b506102c96102c43660046112d2565b6107db565b005b3480156102d757600080fd5b5061021b6102e63660046112d2565b60009081526020818152604080832033845290915290205460ff1690565b34801561031057600080fd5b506102c961031f366004611330565b610907565b34801561033057600080fd5b506102c961033f36600461128e565b610a47565b34801561035057600080fd5b5061036461035f3660046112d2565b610add565b604080516001600160a01b0390931683529015156020830152016101ae565b34801561038f57600080fd5b506102c961039e366004611304565b610b12565b3480156103af57600080fd5b5061021b6103be366004611304565b60009182526001602090815260408084206001600160a01b0393909316845291905290205460ff1690565b3480156103f557600080fd5b5060085461026f906001600160a01b031681565b34801561041557600080fd5b5061021b61042436600461128e565b60096020526000908152604090205460ff1681565b34801561044557600080fd5b506102c96104543660046112d2565b610e56565b34801561046557600080fd5b5060075461026f906001600160a01b031681565b34801561048557600080fd5b506102c96104943660046112d2565b610f80565b3480156104a557600080fd5b5047610241565b3480156104b857600080fd5b506102c96104c7366004611304565b611072565b3480156104d857600080fd5b506102c96104e736600461128e565b61111f565b3480156104f857600080fd5b5061021b610507366004611304565b600160209081526000928352604080842090915290825290205460ff1681565b34801561053357600080fd5b5061021b6105423660046112d2565b6111d0565b6005818154811061055757600080fd5b600091825260209091206004909102018054600182015460028301546003909301546001600160a01b039283169450909291811690600160a01b900460ff1685565b60606002805480602002602001604051908101604052809291908181526020016000905b8282101561060857600084815260209081902060408051808201909152908401546001600160a01b0381168252600160a01b900460ff161515818301528252600190920191016105bd565b50505050905090565b6060600680548060200260200160405190810160405280929190818152602001828054801561066957602002820191906000526020600020905b81546001600160a01b0316815260019091019060200180831161064b575b5050505050905090565b600081600554811061068457600080fd5b6000805b60065481101561070b576000808681526020019081526020016000206000600683815481106106b9576106b9611500565b60009182526020808320909101546001600160a01b0316835282019290925260400190205460ff161515600114156106f957816106f5816114cf565b9250505b80610703816114cf565b915050610688565b50600a5411159392505050565b6006818154811061072857600080fd5b6000918252602090912001546001600160a01b0316905081565b60606005805480602002602001604051908101604052809291908181526020016000905b828210156106085760008481526020908190206040805160a0810182526004860290920180546001600160a01b039081168452600180830154858701526002830154938501939093526003909101549081166060840152600160a01b900460ff16151560808301529083529092019101610766565b3360008181526009602052604090205460ff1615156001146107fc57600080fd5b81600554811061080b57600080fd5b600480546007546040516370a0823160e01b8152339381019390935290916001600160a01b03909116906370a082319060240160206040518083038186803b15801561085657600080fd5b505afa15801561086a573d6000803e3d6000fd5b505050506040513d601f19601f8201168201806040525081019061088e91906112eb565b10156108e15760405162461bcd60e51b815260206004820152601c60248201527f796f752063616e6e6f74207369676e207468652070726f706f73616c0000000060448201526064015b60405180910390fd5b50506000908152602081815260408083203384529091529020805460ff19166001179055565b3360008181526009602052604090205460ff16151560011461092857600080fd5b506040805160a0810182526001600160a01b039283168152602081019586529081019384529181166060830190815260006080840181815260058054600181018255925293517f036b6384b5eca791c62761152d0c79bb0604c104a5fb6f4eb0703f3154bb3db0600490920291820180546001600160a01b03191691851691909117905594517f036b6384b5eca791c62761152d0c79bb0604c104a5fb6f4eb0703f3154bb3db186015592517f036b6384b5eca791c62761152d0c79bb0604c104a5fb6f4eb0703f3154bb3db285015591517f036b6384b5eca791c62761152d0c79bb0604c104a5fb6f4eb0703f3154bb3db390930180549151939092166001600160a81b031990911617600160a01b92151592909202919091179055565b3360008181526009602052604090205460ff161515600114610a6857600080fd5b50604080518082019091526001600160a01b03918216815260006020820181815260028054600181018255925291517f405787fa12a823e0f2b7631cc41b3ba8828b3321ca811111fa75cd3aa3bb5ace909101805492511515600160a01b026001600160a81b03199093169190931617179055565b60028181548110610aed57600080fd5b6000918252602090912001546001600160a01b0381169150600160a01b900460ff1682565b81610b1c81610673565b610b2557600080fd5b3360008181526009602052604090205460ff161515600114610b4657600080fd5b60058481548110610b5957610b59611500565b60009182526020909120600491820201600101546007546040516370a0823160e01b8152309381019390935290916001600160a01b03909116906370a082319060240160206040518083038186803b158015610bb457600080fd5b505afa158015610bc8573d6000803e3d6000fd5b505050506040513d601f19601f82011682018060405250810190610bec91906112eb565b1015610bf757600080fd5b60058481548110610c0a57610c0a611500565b6000918252602090912060049091020160030154600160a01b900460ff1615610c3257600080fd5b600160058581548110610c4757610c47611500565b906000526020600020906004020160030160146101000a81548160ff02191690831515021790555060058481548110610c8257610c82611500565b906000526020600020906004020160030160009054906101000a90046001600160a01b03166001600160a01b031663a9059cbb8460058781548110610cc957610cc9611500565b9060005260206000209060040201600201546040518363ffffffff1660e01b8152600401610d0c9291906001600160a01b03929092168252602082015260400190565b602060405180830381600087803b158015610d2657600080fd5b505af1158015610d3a573d6000803e3d6000fd5b505050506040513d601f19601f82011682018060405250810190610d5e91906112b0565b50600754600580546001600160a01b039092169163a9059cbb919087908110610d8957610d89611500565b6000918252602090912060049091020154600580546001600160a01b039092169188908110610dba57610dba611500565b9060005260206000209060040201600101546040518363ffffffff1660e01b8152600401610dfd9291906001600160a01b03929092168252602082015260400190565b602060405180830381600087803b158015610e1757600080fd5b505af1158015610e2b573d6000803e3d6000fd5b505050506040513d601f19601f82011682018060405250810190610e4f91906112b0565b5050505050565b3360008181526009602052604090205460ff161515600114610e7757600080fd5b816002548110610e8657600080fd5b600480546007546040516370a0823160e01b8152339381019390935290916001600160a01b03909116906370a082319060240160206040518083038186803b158015610ed157600080fd5b505afa158015610ee5573d6000803e3d6000fd5b505050506040513d601f19601f82011682018060405250810190610f0991906112eb565b1015610f575760405162461bcd60e51b815260206004820152601c60248201527f796f752063616e6e6f74207369676e207468652070726f706f73616c0000000060448201526064016108d8565b50506000908152600160208181526040808420338552909152909120805460ff19169091179055565b80610f8a816111d0565b610f9357600080fd5b3360008181526009602052604090205460ff161515600114610fb457600080fd5b60028381548110610fc757610fc7611500565b600091825260209091200154600160a01b900460ff1615610fe757600080fd5b600160028481548110610ffc57610ffc611500565b9060005260206000200160000160146101000a81548160ff0219169083151502179055506000600960006002868154811061103957611039611500565b6000918252602080832091909101546001600160a01b031683528201929092526040019020805460ff1916911515919091179055505050565b3360008181526009602052604090205460ff16151560011461109357600080fd5b60085460405163a9059cbb60e01b81526001600160a01b038481166004830152602482018690529091169063a9059cbb90604401602060405180830381600087803b1580156110e157600080fd5b505af11580156110f5573d6000803e3d6000fd5b505050506040513d601f19601f8201168201806040525081019061111991906112b0565b50505050565b3360008181526009602052604090205460ff16151560011461114057600080fd5b6006805460018101825560008290527ff652222313e28459528d920b65115c16c04f3efc82aaedc97be59f3f377c0d3f0180546001600160a01b0319166001600160a01b03851617905554600a81905560649061119e9060466114b0565b6111a8919061148e565b600355506001600160a01b03166000908152600960205260409020805460ff19166001179055565b60008160025481106111e157600080fd5b6000805b600654811015611266576000858152600160205260408120600680549192918490811061121457611214611500565b60009182526020808320909101546001600160a01b0316835282019290925260400190205460ff161515600114156112545781611250816114cf565b9250505b8061125e816114cf565b9150506111e5565b50600354109392505050565b80356001600160a01b038116811461128957600080fd5b919050565b6000602082840312156112a057600080fd5b6112a982611272565b9392505050565b6000602082840312156112c257600080fd5b815180151581146112a957600080fd5b6000602082840312156112e457600080fd5b5035919050565b6000602082840312156112fd57600080fd5b5051919050565b6000806040838503121561131757600080fd5b8235915061132760208401611272565b90509250929050565b6000806000806080858703121561134657600080fd5b843593506020850135925061135d60408601611272565b915061136b60608601611272565b905092959194509250565b6020808252825182820181905260009190848201906040850190845b818110156113b75783516001600160a01b031683529284019291840191600101611392565b50909695505050505050565b602080825282518282018190526000919060409081850190868401855b8281101561143457815180516001600160a01b039081168652878201518887015286820151878701526060808301519091169086015260809081015115159085015260a090930192908501906001016113e0565b5091979650505050505050565b602080825282518282018190526000919060409081850190868401855b8281101561143457815180516001600160a01b03168552860151151586850152928401929085019060010161145e565b6000826114ab57634e487b7160e01b600052601260045260246000fd5b500490565b60008160001904831182151516156114ca576114ca6114ea565b500290565b60006000198214156114e3576114e36114ea565b5060010190565b634e487b7160e01b600052601160045260246000fd5b634e487b7160e01b600052603260045260246000fdfea26469706673582212202c52f2c620ec5fff5837a36d8e760a841e0649166784c57ae2d074e307a84c0964736f6c63430008060033",
  "immutableReferences": {},
  "source": "//SPDX-License-Identifier: Unlicensed\npragma solidity ^0.8.6;\n\ninterface IERC20 {\n    /**\n     * @dev Returns the amount of tokens in existence.\n     */\n    function totalSupply() external view returns (uint256);\n\n    /**\n     * @dev Returns the amount of tokens owned by `account`.\n     */\n    function balanceOf(address account) external view returns (uint256);\n\n    /**\n     * @dev Moves `amount` tokens from the caller's account to `recipient`.\n     *\n     * Returns a boolean value indicating whether the operation succeeded.\n     *\n     * Emits a {Transfer} event.\n     */\n    function transfer(address recipient, uint256 amount) external returns (bool);\n\n    function _transfer(address _from, address _to, uint256 _value) external ;\n    /**\n     * @dev Returns the remaining number of tokens that `spender` will be\n     * allowed to spend on behalf of `owner` through {transferFrom}. This is\n     * zero by default.\n     *\n     * This value changes when {approve} or {transferFrom} are called.\n     */\n    function allowance(address owner, address spender) external view returns (uint256);\n\n    /**\n     * @dev Sets `amount` as the allowance of `spender` over the caller's tokens.\n     *\n     * Returns a boolean value indicating whether the operation succeeded.\n     *\n     * IMPORTANT: Beware that changing an allowance with this method brings the risk\n     * that someone may use both the old and the new allowance by unfortunate\n     * transaction ordering. One possible solution to mitigate this race\n     * condition is to first reduce the spender's allowance to 0 and set the\n     * desired value afterwards:\n     * https://github.com/ethereum/EIPs/issues/20#issuecomment-263524729\n     *\n     * Emits an {Approval} event.\n     */\n    function approve(address spender, uint256 amount) external returns (bool);\n\n    /**\n     * @dev Moves `amount` tokens from `sender` to `recipient` using the\n     * allowance mechanism. `amount` is then deducted from the caller's\n     * allowance.\n     *\n     * Returns a boolean value indicating whether the operation succeeded.\n     *\n     * Emits a {Transfer} event.\n     */\n    function transferFrom(\n        address sender,\n        address recipient,\n        uint256 amount\n    ) external returns (bool);\n\n    /**\n     * @dev Emitted when `value` tokens are moved from one account (`from`) to\n     * another (`to`).\n     *\n     * Note that `value` may be zero.\n     */\n    event Transfer(address indexed from, address indexed to, uint256 value);\n\n    /**\n     * @dev Emitted when the allowance of a `spender` for an `owner` is set by\n     * a call to {approve}. `value` is the new allowance.\n     */\n    event Approval(address indexed owner, address indexed spender, uint256 value);\n}\n\n\ncontract MultiSigv2{\n    \n    struct Proposal{\n        address to;\n        uint amount;\n        uint256 tokenAmount;\n        address tokenAddress;\n        bool finalized;\n    }\n    \n    mapping(uint => mapping(address => bool)) proposalSigned;\n    \n    struct removeMember{\n        address member;\n        bool finalized;\n        \n    }\n    \n    mapping(uint => mapping(address => bool)) public removeMemberProposalSigned;\n     \n    removeMember[] public members;\n    \n    uint removeMemberSignersRequired;\n    \n    uint public amountNeeded;\n    \n    Proposal[] public proposals;\n    \n    address[] public signers;\n    \n    address public equinox;\n\n    IERC20 public gToken;\n    \n    mapping(address => bool) public canSign;\n    \n    uint signersRequired;\n    \n    constructor(address[] memory initialSigners,address _equinox, uint _amountNeeded){\n        \n        signersRequired = initialSigners.length;\n        \n        removeMemberSignersRequired = initialSigners.length * 70/100;\n            \n        amountNeeded = _amountNeeded;\n      \n        signers = initialSigners;\n        \n        equinox = _equinox;\n        \n        \n        for(uint i=0; i< initialSigners.length; i++){\n            \n            canSign[initialSigners[i]] = true;\n        }\n    }\n    \n    modifier isSigner(address user) {\n        \n        require(canSign[user] == true);\n        _;\n    }\n\n    \n    function submitProposal(uint amount, uint256 tokenAmount, address tokenAddress, address to) public isSigner(msg.sender){\n        \n        proposals.push(Proposal({\n            to:to,\n            amount: amount,\n            tokenAmount: tokenAmount,\n            tokenAddress: tokenAddress,\n            finalized: false\n        }));\n    }\n\n    function listRemoveMembers() public view returns(removeMember[] memory) {\n        return members;\n    }\n\n    function hasRemoveMemberProposolSigned(uint index, address account) public view returns(bool){\n        return removeMemberProposalSigned[index][account];\n    }\n    \n    function removeMemberProposal(address _address) public isSigner(msg.sender){\n        \n        members.push(removeMember({\n            member:_address,\n            finalized: false\n        }));\n    }\n    \n    function balance() public view returns(uint){\n        \n        return address(this).balance;\n    }\n    \n    //fallback payable function to receive ethers in contract\n\n    receive() external payable{}\n    // fallback () external payable{}\n    \n    modifier removeMemberProposalExist(uint index){\n        \n        require(index >= 0);\n        require(index < members.length);\n        _;\n    }\n    \n    modifier proposalExists(uint index){\n        \n        require(index >= 0);\n        require(index < proposals.length);\n        _;\n    }\n    \n    function signRemoveMemberProposal(uint proposalIndex) public isSigner(msg.sender) removeMemberProposalExist(proposalIndex){\n        \n          //only owners with more than or equal to 100 equinox can sign the proposal\n        require(IERC20(equinox).balanceOf(msg.sender)>=amountNeeded,\"you cannot sign the proposal\");\n        \n        removeMemberProposalSigned[proposalIndex][msg.sender] = true;\n    }\n    \n    function sign(uint proposalIndex) public isSigner(msg.sender) proposalExists(proposalIndex){\n        \n        //only owners with more than or equal to 100 equinox can sign the proposal\n        require(IERC20(equinox).balanceOf(msg.sender)>=amountNeeded,\"you cannot sign the proposal\");\n        \n       // proposals[proposalIndex].signed[msg.sender] = true;\n        \n        proposalSigned[proposalIndex][msg.sender] = true;\n    }\n    \n    function removeProposalRequirementMet(uint index) public view removeMemberProposalExist(index) returns(bool){\n        \n        uint signedCount = 0;\n        \n        for(uint i=0; i < signers.length; i++){\n            \n            if(removeMemberProposalSigned[index][signers[i]] == true){\n                \n                signedCount++;\n            }\n        }\n        \n        return signedCount > removeMemberSignersRequired;\n    }\n    \n    function signerRequirementMet(uint index) public view proposalExists(index) returns(bool) {\n       \n       uint signedCount = 0;\n       \n       for(uint i=0; i < signers.length; i++){\n           \n          if(proposalSigned[index][signers[i]]== true){\n              \n              signedCount++;\n          }\n       } \n        \n        return signedCount >= signersRequired;\n    }\n    \n    modifier isFullySigned(uint index) {\n        \n        require(signerRequirementMet(index));\n        _;\n    }\n    \n      modifier isRemovable(uint index) {\n        \n        require(removeProposalRequirementMet(index));\n        _;\n    }\n    \n    \n    function finalizeProposal(uint index, address icoTokenAddress) isFullySigned(index) isSigner(msg.sender) public {\n        \n        require(IERC20(equinox).balanceOf(address(this)) >= proposals[index].amount);\n        require(proposals[index].finalized == false);\n        \n        proposals[index].finalized = true;\n        IERC20(proposals[index].tokenAddress).transfer(icoTokenAddress, proposals[index].tokenAmount);\n        IERC20(equinox).transfer(proposals[index].to,proposals[index].amount);\n    }\n    \n    function removeWalletMember(uint index) isRemovable(index) isSigner(msg.sender) public{\n        \n        require(members[index].finalized == false);\n        members[index].finalized = true;\n        canSign[members[index].member] = false;\n    }\n    \n    function addMember(address _address) isSigner(msg.sender) public {\n        \n        signers.push(_address);\n        \n        signersRequired = signers.length;\n    \n        removeMemberSignersRequired = signers.length * 70/100;\n            \n        canSign[_address] = true;\n    }\n\n    function listSigners() public view returns(address[] memory){\n        return signers;\n    }\n\n\n    function transferGtoken(uint256 amount, address account) public isSigner(msg.sender){\n        gToken.transfer(account, amount);\n    }\n\n    function listProposals() public view returns(Proposal[] memory){\n        return proposals;\n    }\n\n    function isSigned(uint256 index) public view returns(bool) {\n        return proposalSigned[index][msg.sender];\n    }\n}",
  "sourcePath": "/home/linux/Documents/equinoxapp-master/contracts/MultiSigv2.sol",
  "compiler": {
    "name": "solc",
    "version": "0.8.6+commit.11564f7e.Emscripten.clang"
  },
  "schemaVersion": "3.4.3",
  "updatedAt": "2022-01-17T20:10:10.510Z",
  "devdoc": {
    "kind": "dev",
    "methods": {},
    "version": 1
  },
  "userdoc": {
    "kind": "user",
    "methods": {},
    "version": 1
  }
}